:100000000C946C240C949D240C949D240C949D249D
:100010000C949D240C949D240C949D240C949D245C
:100020000C949D240C949D240C949D240C949D244C
:100030000C949D240D94BE160C949D240C949D2428
:100040000C949D240C9420AE0C949D240C949D241F
:100050000C949D240C949D240D9453080D944811E8
:100060000C949D240C944A290C949D240C949D245A
:100070000C949D240C949D240C949D240C949D24FC
:100080000C949D240C949D240C949D240C949D24EC
:100090000C949D240C949D240C949D240C949D24DC
:1000A0000C949D240C949D240C949D240C949D24CC
:1000B0000C949D240C949D240C949D240C949D24BC
:1000C0000C949D240C949D240C949D240C949D24AC
:1000D0000C949D240C949D240C949D240C949D249C
:1000E0000C949D24084AD73B3BCE016E84BCBFFDD7
:1000F000C12F3D6C74319ABD56833DDA3D00C77FF8
:1001000011BED9E4BB4C3E916BAAAABE0000008090
:100110003F05A84CCDB2D44EB93836A9020C50B91F
:10012000918688083CA6AAAA2ABE000000803F004B
:100130000C94FA430C9462D40C94F0460D94C712BC
:100140000D94BD120C94DF330C9465480D94E809AE
:100150000C94134B0C94A65C0D948A120D94AC086D
:100160000D941C130D94A7100D9472100D94A409F6
:100170000D94FE120C94722C0D94D1120C946F45B8
:100180000C94ED520C94862C0D9476100C94792BD3
:100190000C94AD590C94A5680D94A3100D948F1276
:1001A0000C944D420C94A77F0D9491100C94E4464E
:1001B0000D948B100C945E2C0D9484090C94762B6A
:1001C0000C948A5C0C942D550C943DEA0C941E659D
:1001D0000D94A2090D944C090D9499120D94090FD8
:1001E0000D9432090D94DB120D945F100C94453A76
:1001F0000C94737A0C94A1B60C94DB8A0C948AC785
:100200000C94C82F0D94AC100D9499100C94263BAF
:100210000D946C100D94B0090D9487100D948212FA
:100220000D945B090C9400380D94B1100D94F412E8
:100230000D9495100D9408130C94B45C0D94221336
:100240000C9416390C94968C0D947A100D947509B3
:100250000C946A4C0C946D570D94A3120C948985E0
:100260000D9481100C94BC490D94EA120D94AD12BA
:100270000D949F100D94B5120D94AD100C9477A3AE
:100280000D949E090C9441EA0C94985C0D94121301
:100290000C944D3C0C943A900C94D26B0D94A8099C
:1002A0000D947E104E414E494E495459494E46CD0B
:1002B000CCCC3D0AD7233C17B7D13877CC2B32951D
:1002C00095E6241FB14F0A000020410000C84200FB
:1002D000401C4620BCBE4CCA1B0E5AAEC59D744382
:1002E0006172642072656D6F76656400436172644B
:1002F00020696E736572746564004D3234004D324E
:100300003320257300F92E2E004D61696E004C4399
:100310004420636F6E74726173740046696C2E20A2
:100320004469612E20310046696C2E204469612E9B
:100330002031004F6666004F6E20004F6666004F0A
:100340006E20004520696E206D6D3300436F6E7422
:10035000726F6C004573746570732F6D6D0045731B
:10036000746570732F6D6D005A73746570732F6DA3
:100370006D005A73746570732F6D6D0059737465D9
:1003800070732F6D6D005973746570732F6D6D00F0
:100390005873746570732F6D6D0058737465707346
:1003A0002F6D6D00412D7265747261637400412D73
:1003B0007265747261637400416D617820650041FB
:1003C0006D6178206500416D6178207A00416D6132
:1003D00078207A00416D6178207900416D61782044
:1003E0007900416D6178207800416D617820780056
:1003F0005654726176206D696E0056547261762093
:100400006D696E00566D696E00566D696E00566DB1
:100410006178206500566D6178206500566D6178C1
:10042000207A00566D6178207A00566D61782079C7
:1004300000566D6178207900566D617820780056FD
:100440006D617820780056652D6A65726B0056657F
:100450002D6A65726B00567A2D6A65726B00567A4A
:100460002D6A65726B005678792D6A65726B00563D
:1004700078792D6A65726B00416363656C00416336
:1004800063656C00436F6E74726F6C00426564004C
:10049000426564004E6F7A7A6C65004E6F7A7A6CB2
:1004A000650046616E2073706565640046616E206C
:1004B00073706565640054656D7065726174757202
:1004C000650042656400426564004E6F7A7A6C652F
:1004D000004E6F7A7A6C650046616E2073706565B8
:1004E000640046616E2073706565640054656D70CC
:1004F000657261747572650050726568656174201B
:1005000041425320636F6E66005072656865617486
:1005100020504C4120636F6E66005049442D4300CB
:100520005049442D43005049442D44005049442D26
:1005300044005049442D49005049442D4900504938
:10054000442D50005049442D500020022046616344
:10055000740020022046616374002002204D6178FF
:10056000002002204D6178002002204D696E00209D
:1005700002204D696E004F6666004F6E20004F6688
:1005800066004F6E20004175746F74656D70004693
:10059000616E2073706565640046616E20737065DE
:1005A00065640042656400426564004E6F7A7A6C4F
:1005B00065004E6F7A7A6C6500436F6E74726F6C73
:1005C00000526573746F7265206661696C73616651
:1005D00065004C434420636F6E747261737400460F
:1005E000696C616D656E74004D6F74696F6E005457
:1005F000656D7065726174757265004D61696E003C
:100600004D6F766520302E316D6D004D6F76652013
:10061000316D6D004D6F76652031306D6D0050721B
:100620006570617265004578747275646572004D1D
:100630006F7665205A004D6F76652059004D6F76B4
:10064000652058004D6F76652061786973004578A4
:10065000747275646572005A00590058004D6F76C7
:10066000652061786973004D383000537769746391
:100670006820706F776572206F6E004D38310053BF
:10068000776974636820706F776572206F666600A3
:10069000436F6F6C646F776E00507265686561744C
:1006A00020414253005072656865617420504C418E
:1006B0000053657420686F6D65206F66667365749E
:1006C0007300473238004175746F20686F6D6500A4
:1006D0004D38340044697361626C652073746570D1
:1006E00070657273004D61696E0050726568656176
:1006F0007420414253204265640050726568656110
:10070000742041425320310050726570617265005F
:100710005072656865617420504C412042656400E8
:100720005072656865617420504C412031005072F0
:100730006570617265004D363030004368616E67E8
:10074000652066696C616D656E7400466C6F77201C
:100750003000466C6F77203000466C6F7700466C37
:100760006F770046616E2073706565640046616E48
:100770002073706565640042656400426564004EE4
:100780006F7A7A6C65004E6F7A7A6C65005370658B
:100790006564005370656564004D61696E004D339A
:1007A000303020533639382050323030004D33301D
:1007B0003020533635392050323030004E6F2053C0
:1007C000442063617264005072696E742066726FB7
:1007D0006D2053440053746F70207072696E740002
:1007E000526573756D65207072696E740050617525
:1007F0007365207072696E7400436F6E74726F6CF3
:1008000000507265706172650054756E6500496EC6
:10081000666F2073637265656E004D383420582012
:1008200059205A20450059002D2D3A2D2D00B02079
:1008300000B0200000060900FE070199032B20FFED
:10084000FE08FE07FE000000060000010707060282
:100850000080808080800080030303060104A0A044
:10086000A00507070600005050F850F85050050743
:10087000070600002070A0702870200507070600FA
:100880000048A8502050A89005070706000040A087
:10089000A040A8906801030306020480808003073B
:1008A00007060100204080808040200307070601E2
:1008B000008040202020408005050506000188506A
:1008C000F850880505050600012020F820200303C4
:1008D000030601FF604080050101060003F80303E1
:1008E000030601FF40E04005070706000008081066
:1008F0002040808005070706000020508888885027
:10090000200507070600002060A0202020F805072A
:1009100007060000708808304080F80507070600C9
:1009200000F808103008887005070706000010302E
:100930005090F81010050707060000F880B0C808AE
:100940008870050707060000304080B0C888700531
:100950000707060000F808101020404005070706AA
:10096000000070888870888870050707060000708E
:100970008898680810600307070601FF40E0400000
:1009800040E0400307070601FF40E0400060408070
:1009900004070706010010204080402010050303D3
:1009A000060002F800F80407070601008040201046
:1009B00020408005070706000070881020200020D6
:1009C000050707060000708898A8B0807005070723
:1009D00006000020508888F8888805070706000070
:1009E000F04848704848F005070706000070888006
:1009F00080808870050707060000F048484848488E
:100A0000F0050707060000F88080F08080F80507F1
:100A100007060000F88080F0808080050707060048
:100A20000070888080988870050707060000888815
:100A300088F8888888030707060100E040404040A6
:100A400040E0050707060000381010101090600500
:100A500007070600008890A0C0A090880507070639
:100A60000000808080808080F805070706000088ED
:100A700088D8A88888880507070600008888C8A83D
:100A8000988888050707060000708888888888701D
:100A9000050707060000F08888F0808080050808B8
:100AA0000600FF7088888888A87008050707060078
:100AB00000F08888F0A0908805070706000070887D
:100AC0008070088870050707060000F820202020A5
:100AD0002020050707060000888888888888700518
:100AE0000707060000888888505050200507070631
:100AF0000000888888A8A8D888050707060000880D
:100B000088502050888805070706000088885020F4
:100B1000202020050707060000F80810204080F874
:100B2000030707060100E08080808080E00507075A
:100B30000600008080402010080803070706010017
:100B4000E02020202020E005030306000420508838
:100B50000501010600FFF8020202060206804005B8
:100B6000050506000070087888780507070600006C
:100B70008080B0C888C8B005050506000070888070
:100B800088700507070600000808689888986805B7
:100B900005050600007088F880700507070600004C
:100BA000304840F04040400507070600FE7888883E
:100BB000780888700507070600008080B0C888881C
:100BC000880307070601004000C0404040E00409D8
:100BD000090601FE10003010101090906005070704
:100BE00006000080808890E09088030707060100D7
:100BF000C04040404040E0050505060000D0A8A8E0
:100C0000A888050505060000B0C888888805050580
:100C100006000070888888700507070600FEB0C8C7
:100C200088C8B080800507070600FE689888986825
:100C30000808050505060000B0C880808005050588
:100C400006000070807008F00507070600004040AD
:100C5000F0404048300505050600008888889868FF
:100C6000050505060000888850502005050506008A
:100C7000008888A8A8500505050600008850205067
:100C8000880507070600FE888898680888700505AB
:100C900005060000F8102040F804070706010030A0
:100CA0004020C0204030010707060200808080807D
:100CB000808080040707060100C02040304020C02B
:100CC00005030306000448A890000000010000008E
:100CD0000000010000000000010000000000010011
:100CE0000000000001000000000001000000000002
:100CF00001000000000001000000000001000000F1
:100D000000000100000000000100000000000100E0
:100D100000000000010000000000010000000000D1
:100D200001000000000001000000000001000000C0
:100D300000000100000000000100000000000100B0
:100D400000000000010000000000010000000000A1
:100D50000100000000000100000000000100000090
:100D60000000010000000000010000000000010080
:100D70000000000001000000000001000000000071
:100D80000100000000000100000000000100000060
:100D90000000060000010707060200800080808036
:100DA00080800507070600FF2078A0A0A078200516
:100DB0000707060000304840E04048B0050505063A
:100DC000000088705070880508080600FF88885069
:100DD00020F8202020010707060200808080008084
:100DE00080800508080600FF7080E0904838087091
:100DF000030101060107A00507070600007088A887
:100E0000C8A888700406060601017090B05000F072
:100E10000605050600002448904824040202060145
:100E200002F010040101060103F0050707060000A7
:100E30007088E8C8C88870050101060007F8030338
:100E40000306010440A0400506060600002020F825
:100E50002020F804050506010360902040F00405F9
:100E600005060103E0106010E002020206020640DF
:100E7000800506060600FF888888C8B08005070739
:100E800006000078E8E86828282801010106020326
:100E9000800202020602FE408003050506010340AF
:100EA000C04040E00406060601016090906000F03A
:100EB000060505060000904824489006090906002A
:100EC000FF40C04040E40C143C040609090600FF42
:100ED00040C04040E81404081C0509090600FFC092
:100EE000204020C8182878080507070600002000C1
:100EF000202040887005080806000040207088887F
:100F0000F888880508080600001020708888F8888E
:100F1000880508080600002050708888F888880531
:100F2000080806000048B0708888F8888805080816
:100F30000600005000708888F888880508080600B8
:100F4000002050708888F888880607070600003C53
:100F500050909CF0909C0509090600FE70888080E6
:100F6000808870204005080806000040F88080F066
:100F70008080F805080806000010F88080F0808066
:100F8000F805080806000020F88080F08080F80549
:100F9000080806000050F88080F08080F8030808F8
:100FA0000601008040E040404040E00308080601A0
:100FB000002040E040404040E003080806010040B7
:100FC000A0E040404040E0030808060100A000E027
:100FD00040404040E0050707060000F04848E84868
:100FE00048F0050808060000285088C8A898888896
:100FF0000508080600004020708888888870050869
:101000000806000010207088888888700508080687
:101010000000205070888888887005080806000045
:1010200028507088888888700508080600005000DD
:101030007088888888700505050600008850205053
:1010400088050707060000709898A8C8C8700508AA
:1010500008060000402088888888887005080806EF
:10106000000010208888888888700508080600001D
:101070002050008888888870050808060000500005
:1010800088888888887005080806000010208888ED
:101090005020202005070706000080F088F080809F
:1010A00080050707060000708890A09088B00508AA
:1010B00008060000402000700878887805080806B7
:1010C00000001020007008788878050808060000E5
:1010D000205000700878887805080806000028501D
:1010E000007008788878050707060000500070082F
:1010F0007888780508080600002050207008788855
:101100007806050506000078147C907C0507070624
:1011100000FE7088808870204005080806000040A6
:1011200020007088F8807005080806000010200074
:101130007088F8807005080806000020500070884C
:10114000F8807005070706000050007088F880706E
:10115000030808060100804000C0404040E003084A
:1011600008060100408000C0404040E00308080637
:10117000010040A000C0404040E0060A0A0600FE10
:10118000A4A800FC8480808084FC060A0A0600FE75
:10119000549400FC8404040484FC05080806000040
:1011A000285000B0C888888805080806000040203C
:1011B000007088888870040A0A0602FE3040809019
:1011C000909090909090040A0A0600FEC020109023
:1011D000909090909090060707060001448C8C84B4
:1011E00080403C06070706000188C4C4840408F058
:1011F0000505050600012000F80020050808060086
:101200000040F0C88888987810050808060000E0BB
:10121000F88888888888F80505050600012030F8D8
:1012200030200508080600002070F820202020E06B
:101230000509090600FF2070A8A8B8888850200575
:1012400009090600FFE080C0B0A8A83028280509D9
:10125000090600FFF8A88888888888A8F8050A0A7F
:101260000600FE205050505088A8A888700006093B
:1012700000FE06018902FE20FFFE07FE06FE0000BA
:1012800000060007010606060200808080800080BC
:10129000030303060103A0A0A00507070600FF50F3
:1012A00050F850F850500509090600FE2070A8A01B
:1012B0007028A870200608080600FF40A8481020E3
:1012C0004854080507070600FF60909060989068F2
:1012D0000103030602038080800207070602FF4025
:1012E0008080808080400207070602FF80404040E7
:1012F0004040800505050600008850F85088050527
:10130000050600002020F820200204040602FEC08A
:10131000404080050101060002F8020202060200B8
:10132000C0C004060606010010102040808004069C
:10133000060601006090909090600306060601008A
:1013400040C0404040E004060606010060901020C6
:1013500040F0040606060100F020601010E00506CB
:101360000606000010305090F81004060606010032
:10137000F080E01010E00406060601006080E090B6
:101380009060040606060100F0101020404004069C
:101390000606010060906090906004060606010059
:1013A000609090701060020505060200C0C000C089
:1013B000C00207070602FEC0C000C040408005050D
:1013C000050600001860806018050303060001F898
:1013D00000F8050505060000C0300830C004070706
:1013E00006010060901060400040050606060000FF
:1013F0007090A8B08070050606060000205088F89E
:101400008888050606060000F088F08888F0040643
:1014100006060100609080809060040606060100C8
:10142000E090909090E0040606060100F080E080D5
:1014300080F0040606060100F080E080808004064B
:1014400006060100609080B0906004060606010068
:101450009090F0909090030606060100E040404016
:1014600040E00506060600003810101090600406E3
:101470000606010090A0C0A0909004060606010098
:101480008080808080F005060606000088D8A8A825
:10149000888804060606010090D0B090909005065A
:1014A0000606000070888888887004060606010019
:1014B000E09090E080800407070601FF609090D0E4
:1014C000B06010040606060100E09090E0909004E1
:1014D00006060601006090402090600506060600A2
:1014E00000F820202020200406060601009090909D
:1014F000909060040606060100909090F0606005F0
:1015000006060600008888A8A8D8880506060600F2
:101510000088502020508805060606000088885064
:10152000202020040606060100F010204080F00371
:101530000606060100E080808080E00406060601C1
:1015400000808040201010030606060100E02020E5
:101550002020E00503030600032050880501010652
:1015600000FEF802020206020480400404040601A0
:1015700000709090700406060601008080E0909054
:10158000E004040406010070808070040606060171
:101590000010107090907004040406010060B0C048
:1015A00070040606060100205040E0404004060694
:1015B0000601FE609090701060040606060100802F
:1015C00080E09090900306060601004000C0404075
:1015D000E00308080601FE200060202020A040044F
:1015E00006060601008080A0C0A090030606060142
:1015F00000C040404040E0050404060000D0A8A818
:1016000088040404060100E090909004040406019C
:1016100000609090600406060601FEE09090E08075
:10162000800406060601FE709090701010040404F9
:10163000060100A0D0808004040406010070C030C0
:10164000E00406060601004040E040502004040487
:1016500006010090909070040404060100909060D0
:101660006005040406000088A8A8500404040601CC
:1016700000906060900406060601FE9090907090C5
:1016800060040404060100F02040F003070706018F
:1016900000204040804040200107070602FF808074
:1016A0008080808080030707060100804040204042
:1016B000408004020206010350A0FFFFFFFFFFFF6E
:1016C000FFFFFFFFFFFFFFFFFFFFFFFFFFFFFFFF2A
:1016D000FFFFFFFFFFFFFFFFFFFFFF00000006000F
:1016E000070106060602008000808080800406064E
:1016F0000601FF2070A0A070200507070600FF303C
:101700004840F04040F8050505060000A850885004
:10171000A80506060600008850F820F820010707F3
:101720000602FF808080008080800407070601FF9A
:10173000708060906010E0030101060105A00607BB
:1017400007060000788494A49484780305050601B4
:101750000160A06000E00505050600002850A050CB
:1017600028040303060100F0101004010106010221
:10177000F00607070600007884B4A4A48478040166
:1017800001060105F00403030601026090600507ED
:10179000070600FF2020F8202000F80305050601B9
:1017A0000140A02040E0030505060101C0204020C3
:1017B000C002020206020440800405050601FF90F3
:1017C00090B0D08005060606000078E8E868282872
:1017D000010101060202800202020602FE408003AD
:1017E000050506010140C04040E003050506010172
:1017F00040A04000E0050505060000A0502850A0CC
:101800000508080600FF40C04050703078100508F9
:10181000080600FF40C04050680810380508080658
:1018200000FFC0204030F0307810040707060100A8
:1018300020002060809060050707060000402020FF
:101840005070888805070706000010202050708817
:10185000880507070600002050205070888805077B
:1018600007060000285020507088880507070600EA
:10187000005000205070888805070706000020509F
:10188000205070888805060606000078A0F0A0A009
:10189000B80408080601FE60908080906020400433
:1018A00007070601004020F080E080F004070706EB
:1018B00001002040F080E080F004070706010020CE
:1018C00050F080E080F00407070601005000F0802F
:1018D000E080F00307070601008040E0404040E060
:1018E0000307070601002040E0404040E0030707EF
:1018F00006010040A0E0404040E003070706010069
:10190000A000E0404040E00506060600007048E800
:1019100048487004070706010050A090D0B090908E
:1019200004070706010040206090909060040707BC
:1019300006010020406090909060040707060100B7
:101940002050609090906004070706010050A0604E
:1019500090909060040707060100500060909090FE
:101960006005050506000088502050880408080618
:1019700001FF1070B0B0D0D0E0800407070601006E
:10198000402090909090600407070601002040904E
:10199000909090600407070601002050909090906E
:1019A00060040707060100500090909090600507C2
:1019B000070600001020885020202004060606019B
:1019C0000080E09090E0800406060601006090A090
:1019D000A090A004070706010040200070909070BE
:1019E000040707060100204000709090700407076C
:1019F0000601002050007090907004070706010057
:101A000050A000709090700406060601005000700F
:101A1000909070040707060100205020709090708D
:101A200005040406000070A8B0780406060601FE4E
:101A3000708080702040040707060100402000608D
:101A4000B0C07004070706010020400060B0C070FD
:101A500004070706010020500060B0C070040606AD
:101A6000060100500060B0C0700307070601008047
:101A70004000C04040E0030707060100204000C0CE
:101A80004040E003070706010040A000C04040E0DE
:101A9000030606060100A000C04040E00407070658
:101AA000010030601070909060040707060100503C
:101AB000A000E0909090040707060100402000601D
:101AC000909060040707060100204000609090603D
:101AD000040707060100205000609090600407078B
:101AE00006010050A0006090906004060606010008
:101AF0005000609090600505050600002000F80089
:101B00002004040406010070B0D0E00407070601B9
:101B100000402000909090700407070601002040CC
:101B200000909090700407070601002050009090EC
:101B30009070040606060100500090909070040911
:101B4000090601FE20400090909070906004080803
:101B50000601FE8080E09090E08080040808060185
:101B6000FE50009090907090600000000000000017
:101B700000000000007FFFE0000000000000000007
:101B8000000000007000E000000000000000000005
:101B900000000061F860000000000000000000008C
:101BA000000041F8200000000000000000000000DC
:101BB0000040F020000000000000000000000000D5
:101BC00040602000000000000000000000000058FD
:101BD00001A07F80000000000000004104005C6361
:101BE000A0FFC0000000000000002082005EF7A0FF
:101BF000FFC0000000000000002082005EF7A0FF90
:101C0000C0000000000000004104005C63A07F8071
:101C1000000000000000008208005801A07F800042
:101C2000000000000001041000406020FFC0000020
:101C3000000000000104100040F020FFC000000080
:101C40000000000082080041F820FFC000000000F2
:101C500000000041040061F8603F00000000000047
:101C600000000000007000E01E0000000000000006
:101C700001FFFF807FFFE00C00000000000000017A
:101C8000FFFF8000000000000000000000000000D6
:101C900000007FFFE00000000000000000000000E6
:101CA000007000E0000000000000000000000000E4
:101CB000630C60000000000000000000000000470E
:101CC0000E200000000000000000000000004F0F88
:101CD000200000000000000000000000005F0FA0D6
:101CE0000000000000000000000000005E07A07F70
:101CF0008000000000000000410400406020FFC0A0
:101D00000000000000000020820040F020FFC00022
:101D100000000000000020820040F020FFC0000012
:101D200000000000004104004060207F80000000AF
:101D3000000000008208005E07A07F800000000015
:101D40000000010410005F0FA0FFC00000000000B1
:101D500000010410004F0F20FFC000000000000031
:101D600000820800470E20FFC000000000000000B5
:101D7000410400630C603F00000000000000000010
:101D800000007000E01E0000000000000001FFFFE6
:101D9000807FFFE00C0000000000000001FFFF80DA
:101DA0000000000000000000000000000000000033
:101DB0000000000000000000000000000000000023
:101DC0000000000000000000000000000000000013
:101DD0000000000000000000000000000000000003
:101DE00000000000000000000000000000000000F3
:101DF00000000000000000000000000000000000E3
:101E000000000000000000000000000000000000D2
:101E100000000000000000000000000000000000C2
:101E200000000000000000000000000000000000B2
:101E300000000000000000000000000000000000A2
:101E40000000000000000000000000000000000092
:101E50000000000000000000000000000000000082
:101E60000000000000000000000000000000000072
:101E7000000000180000C2C2C202021E1EFEFEFECA
:101E8000FE1E1E1E02C2C2C2C218180000000000C0
:101E90000000000000000000000000000000000042
:101EA0000000000000000000000000000000000032
:101EB000000000080002030303000008080F0F0FD2
:101EC0000F080808000303030308080000000000CF
:101ED0000000000000000000000000000000000002
:101EE00000000000000000000000000000000000F2
:101EF00000000000000000000000000000000000E2
:101F000000000000000000000000000000000000D1
:101F100000000000000000000000000000000000C1
:101F200000000000000000000000000000000000B1
:101F300000000000000000000000000000000000A1
:101F40000000000000000000000000000000000091
:101F50000000000000000000000000000000000081
:101F60000000000000000000000000000000000071
:101F70000000000000000000000000000000000061
:101F80000000000000000000000000000000000051
:101F90000000000000000000000000000000000041
:101FA0000000000000000000000000000000000031
:101FB0000000000000000000000000000000000021
:101FC0000000000000000000000000000000000011
:101FD0000000000000000000000000000000000001
:101FE0000048617264636F6465642044656661756E
:101FF0006C742053657474696E6773204C6F6164F0
:102000006564002044002049002020204D333031F9
:102010002050005049442073657474696E67733AA8
:1020200000205A0020590020204D32303620580020
:10203000486F6D65206F666673657420286D6D2925
:102040003A00204500205A00205800204200205429
:102050000020204D323035205300416476616E639C
:102060006564207661726961626C65733A20533DE4
:102070004D696E20666565647261746520286D6DBA
:102080002F73292C20543D4D696E20747261766542
:102090006C20666565647261746520286D6D2F73B0
:1020A000292C20423D6D696E696D756D20736567E1
:1020B0006D656E742074696D6520286D73292C2000
:1020C000583D6D6178696D756D205859206A65724B
:1020D0006B20286D6D2F73292C20205A3D6D61785F
:1020E000696D756D205A206A65726B20286D6D2FA1
:1020F00073292C2020453D6D6178696D756D2045F3
:10210000206A65726B20286D6D2F732900205400A2
:1021100020204D323034205300416363656C65727A
:102120006174696F6E3A20533D616363656C6572DB
:102130006174696F6E2C20543D72657472616374B2
:1021400020616363656C65726174696F6E00204520
:1021500000205A0020590020204D323031205800F4
:102160004D6178696D756D20416363656C65726161
:1021700074696F6E20286D6D2F7332293A002045E7
:1021800000205A0020590020204D323033205800C2
:102190004D6178696D756D20666565647261746501
:1021A0007320286D6D2F73293A00204500205A00B6
:1021B00020590020204D3932205800537465707327
:1021C0002070657220756E69743A00656E64737470
:1021D0006F7073206869743A205A00205A3A00657B
:1021E0006E6473746F7073206869743A20590020AC
:1021F000593A00656E6473746F7073206869743A3D
:1022000020580020583A00656E6473746F70732014
:102210006869743A200024F4D43050C38E20C2A2DE
:102220004017828B7011127A910D816CD90AA861C6
:10223000E108C7586607615143061E4B5D05C1455D
:10224000A7041A411104093D98037139310340363E
:10225000DB0265339102D4305402802E1D02632CC0
:10226000EE01752AC501B028A001102781018F2534
:1022700064012B244B01E0223401AC211F018D208D
:102280000D01801FFC00841EED00971DDF00B81CAF
:10229000D200E61BC600201BBC00641AB200B219B3
:1022A000A8000A19A0006A189900D11791004017D8
:1022B0008B00B516840031167E00B31579003A15EF
:1022C0007300C7146F0058146A00EE136600881379
:1022D000630025135E00C7125B006C1257001512D5
:1022E0005400C111510070114F0021114B00D61044
:1022F00049008D1047004610440002104200C00FF4
:102300004000800F3E00420F3C00060F3B00CB0E0A
:102310003800930E37005C0E3500270E3400F30DA5
:102320003200C10D3100900D3000600D2E00320DD5
:102330002D00050D2C00D90C2B00AE0C2900850CAE
:1023400029005C0C2700350C27000E0C2600E80B3A
:102350002400C40B2400A00B23007D0B23005A0B88
:102360002100390B2100180B2000F80A1F00D90AA0
:102370001E00BB0A1E009D0A1D00800A1D00630A84
:102380001C00470A1B002C0A1B00110A1A00F7093F
:102390001A00DD091900C4091900AB0919009209D6
:1023A00017007B091800630917004C09160036094D
:1023B0001600200916000A091500F5081500E008A6
:1023C0001400CC081400B8081400A40814009008E5
:1023D00013007D0812006B0813005808120046080D
:1023E000120034081100230811001208110001081E
:1023F0001100F0071000E0071000D0071000C00720
:102400001000B0070F00A107100091070E0083070E
:102410000F0074070F0065070E0057070E004907ED
:102420000E003B070D002E070E0020070D001307BE
:102430000D0006070D00F9060C00ED060D00E00684
:102440000C00D4060C00C8060C00BC060C00B0063C
:102450000C00A4060B0099060C008D060B008206EA
:102460000B0077060B006C060B0061060A0057068E
:102470000B004C060A0042060A0038060A002E0627
:102480000A0024060A001A060A00100609000706B8
:102490000A00FD050900F4050900EB050900E20545
:1024A0000900D9050900D0050900C7050900BE05C6
:1024B0000900B5050800AD050800A50509009C0543
:1024C0000800940508008C050800840508007C05B8
:1024D0000800740508006C050700650508005D0527
:1024E0000700560508004E05070047050700400590
:1024F000080038050700310507002A0507002305F5
:1025000007001C050600160507000F050700080553
:10251000060002050700FB040600F5040700EE04B0
:102520000600E8040600E2040700DB040600D50408
:102530000600CF040600C9040600C3040600BD045B
:102540000600B7040600B1040500AC040600A604AA
:102550000600A00405009B040600950405009004F5
:1025600006008A04050085040500800406007A043C
:10257000050075040500700405006B040500660481
:102580000500610405005C040500570405005204C1
:1025900005004D04050048040500430405003E0401
:1025A00004003A04050035040500300404002C043E
:1025B000050027040400230405001E0404001A0477
:1025C000040016040500110404000D0404000904AD
:1025D00005000404040000040400FC030400F803E4
:1025E0000400F4030400F0030400EC030400E80317
:1025F0000400E4030400E0030400DC030400D80347
:102600000400D4030400D0030400CC030400C80376
:102610000300C503030024F404D9201BC40C5C0E82
:102620009804C4095F0265077101F405F900FB0411
:10263000B30048048700C103690058035500030331
:102640004500BE023A008402310053022A002902EA
:10265000250004022000E4011C00C8011900AF019C
:10266000170098011400840113007101100061012A
:10267000100051010E0043010D0036010B002B012B
:102680000B0020010B00150109000C0109000301DA
:102690000800FB000800F3000800EB000700E4005E
:1026A0000600DE000600D8000600D2000600CC00BE
:1026B0000500C7000500C2000500BD000400B90008
:1026C0000400B5000400B1000400AD000400A9003E
:1026D0000400A5000300A20003009F0004009B006B
:1026E000030098000300950002009300030090008F
:1026F00003008D0002008B000300880002008600AA
:10270000020084000300810002007F0002007D00BF
:1027100002007B00020079000200770001007600D1
:1027200002007400020072000100710002006F00DC
:1027300002006D0001006C0002006A0001006900E7
:1027400002006700010066000100650001006400EE
:1027500002006200010061000100600001005F00F2
:1027600002005D0001005C0001005B0001005A00F6
:1027700001005900010058000100570001005600F7
:1027800001005500010054000100530000005300F7
:1027900001005200010051000100500001004F00F3
:1027A00001004E0000004E0001004D0001004C00F1
:1027B00001004B0000004B0001004A0001004900ED
:1027C00001004800000048000100470001004600E9
:1027D00000004600010045000000450001004400E3
:1027E00001004300000043000100420000004200DD
:1027F00001004100000041000100400001003F00D5
:1028000000003F0001003E0000003E0001003D00CE
:1028100000003D0001003C0000003C0000003C00C6
:1028200001003B0000003B0001003A0000003A00BC
:1028300001003900000039000100380000003800B4
:1028400000003800010037000000370001003600AA
:1028500000003600000036000100350000003500A1
:102860000000350001003400000034000000340096
:10287000010033000000330000003300010032008B
:102880000000320000003200010031000000310081
:102890000000310001003000000030000000300076
:1028A00001002F0000002F0000002F0000002F006B
:1028B00001002E0000002E0000002E0001002D005F
:1028C00000002D0000002D0000002D0001002C0054
:1028D00000002C0000002C0000002C0001002B0048
:1028E00000002B0000002B0000002B0001002A003C
:1028F00000002A0000002A0000002A000100290030
:102900000000290000002900000029000000290023
:102910000100280000002800000028000000280016
:102920000000280001002700000027000000270009
:1029300000002700000027000100260000002600FC
:1029400000002600000026000000260001002500EF
:1029500000002500000025000000250000002500E3
:1029600000002500010024000000240000002400D5
:1029700000002400000024000100230000002300C8
:1029800000002300000023000000230000002300BB
:1029900000002300010022000000220000002200AD
:1029A000000022000000220000002200010021009F
:1029B0000000210000002100000021000000210093
:1029C0000000210000002100010020000000200084
:1029D0000000200000002000000020000000200077
:1029E000000020000000200001001F0000001F0068
:1029F00000001F0000001F0000001F0000001F005B
:102A000000001F0001001E0000001E0000001E004C
:102A100000001E00000020746F6F206C6F6E672036
:102A2000657874727573696F6E2070726576656E05
:102A30007465640020636F6C6420657874727573CC
:102A4000696F6E2070726576656E746564005354AC
:102A50004F505045442E20005072696E74657220AC
:102A600073746F707065642064756520746F206581
:102A700072726F72732E20466978207468652065C3
:102A800072726F7220616E6420757365204D3939E2
:102A90003920746F20726573746172742E2028540B
:102AA000656D7065726174757265206973207265F9
:102AB0007365742E20536574206974206166746593
:102AC000722072657374617274696E6729004B4974
:102AD0004C4C45442E20005072696E74657220681B
:102AE000616C7465642E206B696C6C2829206361AD
:102AF0006C6C656421006F6B00526573656E643A9F
:102B000020002200556E6B6E6F776E20636F6D6DC7
:102B1000616E643A2022004368616E6765206669D1
:102B20006C616D656E74005A204F66667365742023
:102B30003A20007A5F6D61783A20007A5F6D696EA5
:102B40003A20005A204F6666736574005A204F661B
:102B500066736574206F6B006C636420636F6E74C2
:102B6000726173742076616C75653A20007A5F6DCE
:102B700061783A20007A5F6D696E3A2000795F6D66
:102B800061783A2000795F6D696E3A2000785F6D58
:102B900061783A2000785F6D696E3A2000205A3AD9
:102BA0000020593A0020436F756E7420583A200077
:102BB00020453A00205A3A0020593A00583A004637
:102BC00049524D574152455F4E414D453A4D617214
:102BD0006C696E20312E302E322B20446576656C68
:102BE0006F706D656E742046726F6D204172636800
:102BF00069766520534F555243455F434F44455FC7
:102C000055524C3A68747470733A2F2F6769746820
:102C100075622E636F6D2F4D61726C696E466972BD
:102C20006D776172652F4D61726C696E2050524FE5
:102C3000544F434F4C5F56455253494F4E3A312EF5
:102C400030204D414348494E455F545950453A4D17
:102C5000656E64656C2045585452554445525F4337
:102C60004F554E543A3120555549443A3030303062
:102C7000303030302D303030302D303030302D305D
:102C80003030302D30303030303030303030303047
:102C90000A004D656E64656C204F66662E004D65BA
:102CA0006E64656C2072656164792E0042656420F3
:102CB000646F6E652E0020423A0020453A00543A77
:102CC000004265642048656174696E672E0048653E
:102CD0006174696E6720646F6E652E0020573A003C
:102CE00020453A00543A0048656174696E672E2E9B
:102CF0002E002042403A0020403A00202F003A00A7
:102D0000205400202F0020423A00202F006F6B201B
:102D1000543A002569206D696E2C20256920736561
:102D20006300456E642066696C65206C697374008D
:102D3000426567696E2066696C65206C6973740012
:102D40004E6F206D6F76652E004D656E64656C204C
:102D500072656164792E00526573756D696E6720C6
:102D60007072696E74005761697420666F722075A5
:102D70007365722E2E2E00536C6565702E2E2E00FC
:102D8000FFFFFF0000A0400000A040000000400046
:102D9000003C4300003943000044430000000000B1
:102DA0000000000000000000003C43000039430028
:102DB0000044430000000000000000000000002567
:102DC0006920686F757273202569206D696E75744E
:102DD000657300446F6E65207072696E74696E670A
:102DE0002066696C650053544F505045442E2000B6
:102DF0005072696E7465722073746F7070656420B0
:102E000064756520746F206572726F72732E204630
:102E1000697820746865206572726F7220616E64D3
:102E200020757365204D39393920746F20726573B0
:102E3000746172742E202854656D706572617475AA
:102E400072652069732072657365742E20536574F2
:102E50002069742061667465722072657374617292
:102E600074696E6729004E6F204C696E65204E753F
:102E70006D626572207769746820636865636B733F
:102E8000756D2C204C617374204C696E653A20007E
:102E90004E6F20436865636B73756D207769746846
:102EA000206C696E65206E756D6265722C204C61B8
:102EB0007374204C696E653A2000636865636B73B8
:102EC000756D206D69736D617463682C204C61733E
:102ED00074204C696E653A20004C696E65204E7511
:102EE0006D626572206973206E6F74204C6173741B
:102EF000204C696E65204E756D6265722B312C20F9
:102F00004C617374204C696E653A20004D3131304C
:102F100000446F6E6520736176696E672066696C28
:102F2000652E006F6B004D3239002020506C616EB1
:102F30006E657242756666657242797465733A2091
:102F4000002046726565204D656D6F72793A2000EC
:102F50004E6F76203234203230313800436F6D703E
:102F6000696C65643A20005061747269636B204833
:102F7000617272696E67746F6E00207C2041757497
:102F8000686F723A20004E6F762032342032303132
:102F9000382030393A33363A313200204C6173747C
:102FA00020557064617465643A200020312E302E03
:102FB000322B004D61726C696E0020536F6674771E
:102FC000617265205265736574002057617463688F
:102FD000646F67205265736574002042726F776E6C
:102FE000206F757420526573657400204578746590
:102FF000726E616C20526573657400506F776572F4
:103000005570007374617274002200656E7175658D
:10301000696E672022002200656E717565696E67B2
:103020002022006563686F3A004572726F723A0041
:103030007C3C3E5E2B3D3F2F5B5D3B2C2A225C009F
:103040004D383420582059205A20450043616E6E77
:103050006F7420656E746572207375626469723A6C
:1030600020004D3234004D323320257300617574D9
:103070006F25692E67006572726F722077726974AE
:10308000696E6720746F2066696C65004E6F7420EE
:103090005344207072696E74696E67002F00534448
:1030A000207072696E74696E6720627974652000A1
:1030B0002E0044656C6574696F6E206661696C658D
:1030C000642C2046696C653A200046696C65206472
:1030D000656C657465643A002E006F70656E2066DD
:1030E00061696C65642C2046696C653A20005772F2
:1030F0006974696E6720746F2066696C653A200098
:103100002E006F70656E206661696C65642C2046C8
:10311000696C653A20002E006F70656E20666169EB
:103120006C65642C2046696C653A200046696C65C4
:103130002073656C6563746564002053697A653A31
:10314000200046696C65206F70656E65643A2000EA
:103150002E006F70656E206661696C65642C204678
:10316000696C653A20004E6F77206672657368203F
:1031700066696C653A20004E6F7720646F696E67F0
:103180002066696C653A20002220706F730022204F
:10319000706172656E743A2200535542524F555415
:1031A000494E452043414C4C207461726765743A26
:1031B0002200747279696E6720746F2063616C6C91
:1031C000207375622D67636F64652066696C657333
:1031D000207769746820746F6F206D616E79206C40
:1031E0006576656C732E204D4158206C6576656C54
:1031F0002069733A0053442063617264206F6B004E
:103200006F70656E526F6F74206661696C656400E3
:10321000766F6C756D652E696E6974206661696C78
:10322000656400534420696E6974206661696C00AE
:103230004572723A204D415854454D502042454404
:103240000054656D706572617475726520686561A2
:10325000746564206265642073776974636865646B
:10326000206F66662E204D415854454D5020747293
:1032700069676765726564202121004572723A2092
:103280004D494E54454D50003A204578747275644E
:103290006572207377697463686564206F66662E53
:1032A000204D494E54454D502074726967676572D0
:1032B00065642021004572723A204D415854454DB5
:1032C00050003A204578747275646572207377698E
:1032D0007463686564206F66662E204D41585445BE
:1032E0004D502074726967676572656420210050D3
:1032F0004944204175746F74756E652066696E6906
:1033000073686564212050757420746865206C6151
:103310007374204B702C204B6920616E64204B64C9
:1033200020636F6E7374616E74732066726F6D20AC
:1033300061626F766520696E746F20436F6E666997
:103340006775726174696F6E2E6800504944204140
:1033500075746F74756E65206661696C6564212093
:1033600074696D656F75740020403A006F6B20546E
:103370003A006F6B20423A00504944204175746F07
:1033800074756E65206661696C6564212054656D95
:10339000706572617475726520746F6F20686967FB
:1033A0006800204B643A2000204B693A2000204BF3
:1033B000703A200020436C61737369632050494464
:1033C00020002054753A2000204B753A2000206DD3
:1033D00061783A2000206D696E3A200020643A201E
:1033E0000020626961733A20001000AD0330016A69
:1033F0000150022B0170030A019004F500B005E5AD
:1034000000D006D800F007CE001009C500300ABE73
:1034100000500BB700700CB100900DAB00B00EA6C1
:1034200000D00FA200F0109D0010129900301395EB
:10343000005014920070158E0090168B00B0178704
:1034400000D0188400F0198100101B7E00301C7B16
:1034500000501D7900701E7600901F7300B0207020
:1034600000D0216E00F0226B001024690030256628
:1034700000502663007027610090285E00B0295C30
:1034800000D02A5900F02B5600102D5400302E5138
:1034900000502F4E0070304B0090314800B0324544
:1034A00000D0334200F0343E0010363B0030373756
:1034B000005038330070392E00903A2900B03B2379
:1034C00000D03C1B00F03D1100103F0100F03F0018
:1034D000001000C90210012C0140012201700118E6
:1034E00001B0010E01F00104015002FA00B002F037
:1034F000003003E600D003DC009004D2007005C861
:1035000000A006BE000008B400B009AA00D00BA0BD
:1035100000600E960060118C000015820020197862
:1035200000C01D6E00A0226400B0275A00902C50ED
:103530000000314600E0343C0010383200903A2858
:1035400000603C1E00A03D1400803E0A00203F00A9
:103550000000091200FC0A01E803D720FFFD0EFD60
:103560000BFD00000009000E010B0B090400808018
:10357000808080808000008080040404090307901C
:10358000909090080A0A090000242424FF2424FFB4
:10359000242424070B0B0901FF107C92905038144F
:1035A00012927C10070A0A09010042A4A4481010D4
:1035B000244A4A84070A0A090100609090906062D8
:1035C0009488946201040409040780808080030CBD
:1035D0000C0903FF20404080808080808040402094
:1035E000030C0C0903FF80404020202020202040B5
:1035F00040800707070901031092543854921007BE
:103600000707090101101010FE1010100204040930
:1036100004FEC0C04080070101090104FE0202024D
:10362000090400C0C0070A0A0901000204040810C6
:103630001020404080070A0A090100384482828233
:103640008282824438070A0A090100103050901023
:1036500010101010FE070A0A090100384482020403
:1036600008102040FE070A0A090100FE020408189B
:103670000402028478070A0A090100040C14244495
:1036800084FE040404070A0A090100FE808080F811
:103690000402028478070A0A0901003C408080B8CD
:1036A000C482824438070A0A090100FE02040408A1
:1036B0000810101010070A0A090100384482443823
:1036C0004482824438070A0A09010038448282464B
:1036D0003A02020478020707090400C0C000000093
:1036E000C0C00209090904FEC0C0000000C0C040FB
:1036F00080050909090200081020408040201008B8
:10370000070404090102FE0000FE05090909020080
:10371000804020100810204080070A0A0901003864
:10372000448202040810100010070A0A0901003838
:10373000449AAAAAAAAA9C403C070A0A09010010B6
:10374000282828447C44828282070A0A090100F85A
:10375000848284F884828284F8070A0A0901003C82
:1037600042808080808080423C070A0A090100F87C
:103770008482828282828284F8070A0A090100FE1A
:10378000808080F880808080FE070A0A090100FEA0
:10379000808080F88080808080070A0A09010038D4
:1037A000448280808E82824438070A0A090100829E
:1037B000828282FE8282828282050A0A090200F8DF
:1037C0002020202020202020F8070A0A0901003E9E
:1037D000080808080808888870070A0A0901008292
:1037E000848890A0D088848282070A0A0901008018
:1037F0008080808080808080FE070A0A0901008224
:1038000082C6AA928282828282070A0A0901008203
:1038100082C2A2928A86828282070A0A0901007CF9
:1038200082828282828282827C070A0A090100F8EF
:1038300084828284F880808080080B0B0901FF3825
:103840004482828282828A443A01070A0A0901007C
:10385000F884828284F890888482070A0A09010029
:103860007C8280807C020202827C070A0A090100B5
:10387000FE101010101010101010070A0A09010095
:1038800082828282828282824438070A0A09010087
:1038900082828244444428282810070A0A09010029
:1038A0008282828292929292AA44070A0A090100B5
:1038B00082824428101028448282070A0A090100E3
:1038C00082824428101010101010070A0A09010003
:1038D000FE0204081020408080FE040C0C0903FF47
:1038E000F080808080808080808080F0070A0A09D4
:1038F000010080404020101008040402040C0C0950
:1039000002FFF010101010101010101010F007042B
:1039100004090106102844820801010900FFFF0381
:10392000030309030A8040200707070901007C02FE
:10393000027E82867A070A0A090100808080BCC262
:10394000828282C2BC0707070901007C82808080D6
:10395000827C070A0A0901000202027A86828282B8
:10396000867A0707070901007C8282FE80827C0735
:103970000A0A0901001C22222020F820202020070A
:103980000A0A0901FD7A84848478807C82827C071B
:103990000A0A090100808080BCC28282828282057C
:1039A0000A0A090200600000E02020202020F8051B
:1039B0000D0D0902FD1800003808080808080888DD
:1039C0008870070A0A090100808080848890B0C846
:1039D0008482050A0A090200E020202020202020FD
:1039E00020F8070707090100EC9292929292820751
:1039F0000707090100BCC282828282820707070989
:103A000001007C82828282827C070A0A0901FDB859
:103A1000C4828282C4B8808080070A0A0901FD3A04
:103A200046828282463A0202020707070901009C89
:103A30006242404040400707070901007C82807CC9
:103A400002827C0709090901002020FC2020202097
:103A5000221C0707070901008282828282867A0778
:103A60000707090100828244442828100707070934
:103A700001008282929292AA4407070709010082FC
:103A8000442810284482070A0A0901FD42422424DE
:103A9000241818109060070707090100FE04081099
:103AA0002040FE060B0B0902001C20202020C02015
:103AB0002020201C010C0C0904FF80808080808065
:103AC000808080808080060B0B090100E0101010C0
:103AD000100C10101010E007030309010762928C0C
:103AE000FFFFFFFFFFFFFFFFFFFFFFFFFFFFFFFFE6
:103AF000FFFFFFFFFFFFFFFFFFFFFFFFFFFFFFFFD6
:103B0000FF00000009000E010B0B0904008080007B
:103B10000080808080808080060808090100087885
:103B20009490A0A47840070A0A0901001C222020D2
:103B3000F8202060A25C070606090103827C444449
:103B40007C82070A0A090100828244287C107C10CA
:103B50001010010B0B0904FF8080808080008080A2
:103B6000808080040B0B0902FF6090806090909031
:103B70006010906003020209030BA0A00809090964
:103B800000013C4299A5A1A599423C0507070901FE
:103B900003609070907800F807080809010112246A
:103BA000489090482412060404090102FC0404040D
:103BB000050101090204F80809090900013C42B99C
:103BC000A5BDA9A5423C060101090109FC040404A4
:103BD000090306609090600709090901011010109F
:103BE000FE10101000FE040606090104609010602B
:103BF00080F0040606090104609020109060030321
:103C00000309030A2040800709090901FE82828214
:103C10008282C6BA8080070A0A0901007E8A8A8ADF
:103C20007A0A0A0A0A0A020202090404C0C004034A
:103C3000030902FD20906003060609010440C0400C
:103C40004040E00506060901047088887000F80706
:103C500008080901019048241212244890070A0A12
:103C600009010040C0404042E60A121A06070A0A4B
:103C700009010040C040404CF2020C101E070A0A25
:103C80000901006090201092660A121A06070A0ABB
:103C90000901001000101020408082827C070E0E67
:103CA0000901002010080010282828447C44828242
:103CB00082070E0E09010008102000102828284451
:103CC0007C44828282070E0E0901001028440010F5
:103CD000282828447C44828282070D0D0901003483
:103CE000580010282828447C44828282070D0D0940
:103CF000010028280010282828447C44828282075A
:103D00000E0E0901001028281010282828447C4491
:103D1000828282070A0A0901001E2828284E784854
:103D200088888E070D0D0901FD3C428080808080CF
:103D300080423C082418070E0E09010020100800DC
:103D4000FE808080F880808080FE070E0E090100D2
:103D500008102000FE808080F880808080FE070EA2
:103D60000E09010010284400FE808080F8808080C9
:103D700080FE070D0D090100282800FE808080F8D4
:103D800080808080FE050E0E09020040201000F8A1
:103D90002020202020202020F8050E0E09020010EF
:103DA000204000F82020202020202020F8050E0EA2
:103DB00009020020508800F8202020202020202008
:103DC000F8050D0D090200505000F8202020202099
:103DD000202020F8070A0A09010078444242F242F2
:103DE00042424478070D0D0901003458008282C216
:103DF000A2928A86828282070E0E09010020100894
:103E0000007C82828282828282827C070E0E09017D
:103E100000081020007C82828282828282827C075B
:103E20000E0E090100102844007C82828282828268
:103E300082827C070D0D0901003458007C82828249
:103E400082828282827C070D0D0901002828007C75
:103E500082828282828282827C0707070901018234
:103E6000442810284482070C0C0901FF027C868A32
:103E70008A9292A2A2C27C80070E0E090100201035
:103E8000080082828282828282824438070E0E0972
:103E9000010008102000828282828282828244385D
:103EA000070E0E090100102844008282828282825D
:103EB00082824438070D0D09010028280082828281
:103EC00082828282824438070E0E09010008102087
:103ED0000082824428101010101010070A0A0901ED
:103EE000008080FC828282FC808080060A0A0901B0
:103EF0000038444448D04844444458070B0B090157
:103F000000201008007C02027E82867A070B0B09D3
:103F10000100081020007C02027E82867A070B0BCB
:103F2000090100102844007C02027E82867A070A7A
:103F30000A0901003458007C02027E82867A070A50
:103F40000A0901002828007C02027E82867A070C7A
:103F50000C09010010282810007C02027E82867A5B
:103F60000707070901006C12127E90926C070A0A7B
:103F70000901FD7C82808080827C104830070B0B19
:103F8000090100201008007C8282FE80827C070BE1
:103F90000B090100081020007C8282FE80827C07D1
:103FA0000B0B090100102844007C8282FE80827C79
:103FB000070A0A0901002828007C8282FE80827C90
:103FC000050C0C0902008040200000E02020202089
:103FD00020F8050C0C0902001020400000E0202011
:103FE000202020F8050C0C0902002050880000E079
:103FF0002020202020F8050B0B0902005050000063
:10400000E02020202020F8070B0B09010048305049
:10401000083C448282824438070A0A090100345865
:1040200000BCC28282828282070B0B090100201031
:1040300008007C82828282827C070B0B09010008C7
:104040001020007C82828282827C070B0B09010097
:10405000102844007C82828282827C070A0A09013D
:10406000003458007C82828282827C070A0A09011D
:10407000002828007C82828282827C07090909014B
:104080000010381000FE001038100709090901FF60
:10409000027C8A8A92A2A27C80070B0B0901004055
:1040A0002010008282828282867A070B0B0901002F
:1040B000081020008282828282867A070B0B090117
:1040C00000102844008282828282867A070A0A09C6
:1040D00001002828008282828282867A070E0E09D9
:1040E00001FD040810004242242424181810906096
:1040F000070B0B0901FE8080B8C4828282C4B8809D
:1041000080070D0D0901FD242400424224242418B7
:104110001810906001050800FF060121023520FFFC
:10412000FF07FF06FF09005022165680808080009E
:1041300080153353A0A0A00257575050F850F850A4
:10414000500257572070A07028702013355580A05A
:1041500040A02002475740A0A040A0A050251353E4
:1041600080808012265640808080804012265680B3
:1041700040404040800245559060F06090025555A7
:104180002020F82020113353604080044151F01169
:10419000335340E0400246561010204080801236D3
:1041A0005640A0A0A0A04012365640C0404040E07B
:1041B0000246566090106080F0024656F020601073
:1041C00090600246562060A0F02020024656F08003
:1041D000E01090600246566080E090906002465683
:1041E000F01020204040024656609060909060029F
:1041F0004656609090701060122555C0C000C0C037
:104200001136566060006040801236562040808033
:104210004020034353F000F01236568040202040E7
:104220008012365640A0204000400158583048982F
:10423000A8A8904030024656609090F090900246B8
:1042400056E090E09090E00246566090808090604A
:10425000024656E090909090E0024656F080E08052
:1042600080F0024656F080E08080800246566090E2
:1042700080B090600246569090F090909012365622
:10428000E040404040E002465670202020A040021E
:10429000465690A0C0A0A0900246568080808080A4
:1042A000F002465690F0F090909002465690D0F072
:1042B000B0B090024656609090909060024656E0F2
:1042C0009090E08080014757609090D0B0601002DD
:1042D0004656E09090E090900246566090402090C4
:1042E00060123656E0404040404002465690909062
:1042F0009090600246569090909060600246569072
:104300009090F0F090024656909060609090025627
:1043100056888850202020024656F010204080F019
:10432000123656E080808080E00246568080402031
:104330001010123656E020202020E016325240A005
:10434000014151F016225280400244547090907006
:104350000246568080E09090E01234546080806085
:1043600002465610107090907002445460B0C060C5
:10437000024656205040E040400145556090701084
:10438000600246568080E09090901236564000C001
:104390004040E01137572000202020A04002465620
:1043A000808090E09090123656C040404040E0023D
:1043B0005454D0A8A8A8024454E0909090024454C9
:1043C00060909060014555E090E080800145557017
:1043D00090701010024454A0D0808012345460C0F9
:1043E00020C00246564040E0405020024454909085
:1043F0009070123454A0A0A04002545488A8A85031
:104400000244549060609001455590907090600215
:104410004454F02040F0024757304020C020403044
:10442000221656808080808080024757C02040300E
:104430004020C006425250A0FFFFFFFFFFFFFFFFDA
:10444000FFFFFFFFFFFFFFFFFFFFFFFFFFFFFFFF7C
:10445000FFFFFFFFFFFFFFFFFF09005022165680FE
:1044600000808080800146562070A0A07020024607
:10447000562050E04050A002555588705070880278
:1044800056568850F820F8202217578080800080E8
:1044900080800247577080E0907010E0173151A083
:1044A00002565670A8C8C8A87014355560A06000A0
:1044B000E003435350A050123353E02020143151F5
:1044C000E002565670E8D8E8D870173151E015333D
:1044D0005340A04012355540E04000E014355540AF
:1044E000A02040E0143555C020C020C01622524004
:1044F00080014555909090E08002565678E8E86833
:10450000282824115180112252408014355540C072
:104510004040E014355540A04000E0034353A05014
:10452000A0024757808080A060F02002475780801B
:10453000A0D010207002475780408060A0F0201269
:10454000365640004080A04002475740206090F01F
:10455000909002475720406090F09090024757603B
:10456000906090F0909002475750A06090F090902B
:1045700002475790006090F090900247576090601B
:1045800090F0909002465670A0A0F0A0B00147575E
:10459000609080809060400247574020F080E0802B
:1045A000F00247572040F080E080F00247576090CB
:1045B000F080E080F00247579000F080E080F01239
:1045C00037578040E0404040E01237572040E040FD
:1045D0004040E012375740A0E0404040E0123757DB
:1045E000A000E0404040E00256567048E84848705D
:1045F00002475750A090D0B090900247574020609B
:1046000090909060024757204060909090600247E1
:10461000576090609090906002475750A0609090D3
:10462000906002475790006090909060123353A0C2
:1046300040A002465670B0B0D0D0E00247574020AC
:104640009090909060024757204090909090600228
:1046500047576090909090906002475790009090DC
:104660009090600257571020885020202002465614
:1046700080E09090E0800246566090A0A090A0025A
:1046800047574020007090907002475720400070BC
:1046900090907002475720500070909070024757DA
:1046A00050A000709090700246565000709090702C
:1046B00002475760906070909070025454F068B058
:1046C0007811355560808060400247574020006077
:1046D000B0C06002475720400060B0C0600247573A
:1046E00060900060B0C060024656500060B0C0608C
:1046F000123757804000C04040E01237572040003A
:10470000C04040E012375740A000C04040E01236A1
:1047100056A000C04040E0024757A040A010709053
:104720006002475750A000E0909090024757402009
:1047300000609090600247572040006090906002B7
:1047400047576090006090906002475750A000600B
:1047500090906002465690006090906012355540EF
:1047600000E0004002445470B0D0E00247574020BF
:1047700000909090700247572040009090907002F7
:10478000475760900090909070024656900090902D
:1047900090700148582040009090709060014757F9
:1047A0008080E090E080800147579000909070906A
:1047B0006000000A0B02090C0D0E0807030401003B
:1047C00000000000000000000000000000000000E9
:1047D00000000000000000000000000000121110A6
:1047E00000000000000000000000000000000000C9
:1047F0000000000000000001021020200808102026
:10480000401020408002010201080402010102045C
:10481000081020408080402010080402018004021B
:104820000180402010080402010804020101020472
:104830000810204080010204081020408005050572
:1048400005070508080808020202020A0A08080407
:104850000404040101010101010101030303030335
:10486000030303040707070C0C0C0C0C0C0C0C02C4
:1048700002020206060606060606060B0B0B0B0BCB
:104880000B0B0B000020002300260029002C002F1A
:1048900000320000010000030106010901000022AE
:1048A00000250028002B002E0031003400020100FA
:1048B00000050108010B0100002100240027002A47
:1048C000002D003000330001010000040107010A3F
:1048D000010277A33DEA41EA11241FBECFEFD1E2E6
:1048E000DEBFCDBF00E00CBF14E0A0E0B2E0EAE71D
:1048F000F6E402E00BBF02C007900D92A63DB1079F
:10490000D9F724E1A6EDB4E001C01D92A23BB207A5
:10491000E1F714E2CBE6D4E200E006C021970109FA
:10492000802FFE010F945C1CC936D10780E0080778
:10493000A9F70F946A130D94FC220C940000CF93F6
:104940008091DA04C1E08823A1F04091DD06509106
:10495000DE066091DF067091E0062DED34E0809177
:10496000DB049091DC040E9476A5C82F811104C05D
:10497000C0E08C2FCF9108954091D6045091D70478
:104980006091D8047091D9044115510561057105F4
:1049900091F02DED34E08091DB049091DC040E94D5
:1049A00076A5882329F31092D6041092D70410928A
:1049B000D8041092D9041092DA04DBCFCF92DF92A0
:1049C000EF92FF92CF936B017C01C42F8091DD06A3
:1049D0009091DE06A091DF06B091E0068C159D0552
:1049E000AE05BF0501F10E949F24811108C0C0E0FF
:1049F0008C2FCF91FF90EF90DF90CF9008952DED09
:104A000034E0B701A6018091DB049091DC040E94A0
:104A10001AA5882361F3C092DD06D092DE06E092EB
:104A2000DF06F092E006CC2321F081E08093DA04E7
:104A3000DFCFC1E0DDCF8F929F92AF92BF92CF9236
:104A4000DF92EF92FF920F931F93CF93DF938C012E
:104A50006A017B01E901FC0181859285A385B4850A
:104A60000196A11DB11D8C159D05AE05BF0570F405
:104A700080E0DF91CF911F910F91FF90EF90DF9039
:104A8000CF90BF90AF909F908F900895878980318D
:104A900079F599278F2D7E2D6D2D83889488A58893
:104AA000B688680D791D8A1D9B1D8090DD0690904B
:104AB000DE06A090DF06B090E006681579058A054D
:104AC0009B0539F5F8018789803149F5DD24EE240D
:104AD000FF24F601EE0FFF1FE352FB4F808191810F
:104AE000B0E0A0E088839983AA83BB8381E0C1CF33
:104AF000803209F0BDCF83889488A588B688CB0121
:104B0000BA0127E096958795779567952A95D1F70D
:104B1000C8CF40E00E94DE248111D4CFA9CFE89411
:104B2000C7F8DD24EE24FF24F601EE0FFF1FEE0F81
:104B3000FF1FE352FB4F80819181A281B381BF703F
:104B4000D1CF4F925F926F927F92AF92BF92CF92EE
:104B5000DF92EF92FF920F931F93CF93DF9300D0DA
:104B60000F92CDB7DEB78C0149835A836B837C8368
:104B70005901C12CD12C7601412C82E0582E612C98
:104B8000712C49815A816B817C819E012F5F3F4F3F
:104B9000C8010E941B25882319F1F8018585A3010E
:104BA000920104C0220F331F441F551F8A95D2F76C
:104BB000DA01C901C80ED91EEA1EFB1E49815A81BD
:104BC0006B817C8187898031F1F481E0483F5F4FC0
:104BD00061057105B0F2F501C082D182E282F382F3
:104BE0000F900F900F900F90DF91CF911F910F9129
:104BF000FF90EF90DF90CF90BF90AF907F906F903D
:104C00005F904F90089581E0483F5F4F6F4F7F4026
:104C100008F4B7CFE0CF4F925F926F927F928F925E
:104C20009F92AF92BF92CF92DF92EF92FF920F933B
:104C30001F93CF93DF93EC016A017B0128013901B7
:104C400082E0C816D104E104F10490F480E0DF9121
:104C5000CF911F910F91FF90EF90DF90CF90BF9079
:104C6000AF909F908F907F906F905F904F9008953E
:104C700089859A85AB85BC850196A11DB11D8C15D2
:104C80009D05AE05BF0510F38F898031A9F58D2CE8
:104C90009E2CAF2CBB248B899C89AD89BE89880E44
:104CA000991EAA1EBB1E41E0C501B4010E94DE246C
:104CB000882361F29F89903181F5DD24EE24FF2461
:104CC000F601EE0FFF1FE352FB4F518240829A899B
:104CD000923008F4BCCF4D815E816F817885840E5F
:104CE000951EA61EB71E8092D6049092D704A0925D
:104CF000D804B092D904ABCF803209F0A7CF8B890A
:104D00009C89AD89BE894A015B0137E0B694A794BE
:104D1000979487943A95D1F7C2CFE894C7F8DD24E9
:104D2000EE24FF24F601EE0FFF1FEE0FFF1FE352EC
:104D3000FB4F4082518262827382C9CF2F923F9291
:104D40004F925F926F927F928F929F92AF92BF929B
:104D5000CF92DF92EF92FF920F931F93CF93DF9347
:104D6000CDB7DEB72F970FB6F894DEBF0FBECDBF1D
:104D70001C014D835E836F8378873B872A87FC0104
:104D800081859285A385B4858C019D010F5F1F4F9E
:104D90002F4F3F4F0C871D872E873F87AA85BB85E6
:104DA000CD90DD90ED90FC90C114D104E104F104AC
:104DB00039F0BFEFCB1ADB0AEB0AFB0A19860FC0EA
:104DC000C080D180E280F380F1E0F9870D811E81FF
:104DD0002F813885013011052105310579F746010C
:104DE0005701412C512C3201F10181859285A38517
:104DF000B485481659066A067B0608F045C00C853E
:104E00001D852E853F85081519052A053B0550F49B
:104E100082E0882E912CA12CB12C92E0C92ED12CAD
:104E2000E12CF12C9E012F5F3F4FB501A401C10180
:104E30000E941B25882341F1D501C4010196A11DC3
:104E4000B11D49815A816B817C81452B462B472BB3
:104E5000B1F5AC01BD014C195D096E097F090D81E9
:104E60001E812F813885401751076207730749F566
:104E70000FEF1FEF2FEF3FE0B501A401C1010E942A
:104E80000B268D83811125C01D828D812F960FB633
:104E9000F894DEBF0FBECDBFDF91CF911F910F9170
:104EA000FF90EF90DF90CF90BF90AF909F908F904A
:104EB0007F906F905F904F903F902F9008956C017E
:104EC0007D011FEF411A510A610A710A4C015D010F
:104ED0008BCFC814D904EA04FB0488F424013501FB
:104EE00021E0421A51086108710895018401B3015B
:104EF000A201C1010E940B2653014201C3CFAA8522
:104F0000BB854D915D916D917C9141155105610578
:104F10007105C1F4EA85FB85C082D182E282F38209
:104F2000F985FF2309F4B1CF0FEFC01AD00AE00AC8
:104F3000F00AD101CD92DD92ED92FC921397B985E2
:104F4000BD83A3CF97018601C1010E940B26811169
:104F5000E1CF9ACFAF92BF92CF92DF92EF92FF92C2
:104F60000F931F93CF93DF9300D00F92CDB7DEB78F
:104F70005C016A017B0182E090E0A0E0B0E0F50115
:104F800080839183A283B3839E012F5F3F4FB7013C
:104F9000A601C5010E941B25882399F100E010E0BD
:104FA0009801B701A601C5010E940B26882349F18B
:104FB000C980DA80EB80FC80F50187898031B9F403
:104FC00081E0F8EFCF16FFEFDF06E104F104E0F235
:104FD0000F900F900F900F90DF91CF911F910F9135
:104FE000FF90EF90DF90CF90BF90AF90089581E059
:104FF00098EFC9169FEFD906E9069FE0F90640F73A
:10500000C3CF80E0E5CF4F925F926F927F92AF92D5
:10501000BF92CF92DF92EF92FF920F931F93CF93A5
:10502000DF93EC01142F7093DC046093DB041F8A80
:1050300082E090E0A0E0B0E088839983AA83BB83FC
:105040001092DA041092D6041092D7041092D80469
:105050001092D9048FEF9FEFDC018093DD069093CF
:10506000DE06A093DF06B093E006442309F47DC07A
:10507000453088F0E0E08E2FDF91CF911F910F91A6
:10508000FF90EF90DF90CF90BF90AF907F906F90A8
:105090005F904F90089540E060E070E0CB010E9487
:1050A000DE24882339F3812F8150990BAC0164E011
:1050B000440F551F6A95E1F743525B4FFA01E254E2
:1050C000FE4F80818F77B1F63C9680819181A281DD
:1050D000B38184369105A105B10560F24A535E4F54
:1050E000FA01C080D180E280F380C114D104E104D0
:1050F000F10409F4BFCF40E0C701B6010E94DE24ED
:10510000E82F882309F4B6CF8091E8049091E90450
:105110008115924009F0AECF9091ED04992309F4E6
:10512000A9CF2091EB043091EC04232B09F4A2CFFA
:105130008091EA04882309F49DCF9A8B8C831D8685
:1051400090E041E050E02D85022FBA01022E02C00E
:10515000660F771F0A94E2F78617970751F031E040
:10516000320F3D87283078F385CFC12CD12C7601C2
:10517000C2CF2091F3043091F40450E040E02115B7
:10518000310541F42091010530910205409103055C
:10519000509104052D833E834F8358878091EB0403
:1051A0009091EC0426013701480E591E611C711CB8
:1051B0004B8A5C8A6D8A7E8AA090EE04B090EF04E0
:1051C000B98EA88EA091ED04B0E00F94731CDC01A1
:1051D000CB01840D951DA61DB71D8A8F9B8FAC8FAB
:1051E000BD8F25E0AA0CBB1C2A95E1F721E0A21A8D
:1051F0002EEFB20AAB2CBB24A6948A0D9B1DA11DD9
:10520000B11D8E879F87A88BB98B4090F00450907A
:10521000F104712C612C4114510441F44090FD04BF
:105220005090FE046090FF0470900005C81AD90ADF
:10523000EA0AFB0AC40CD51CE61CF71C04C0F69451
:10524000E794D794C7940A95D2F7C986DA86EB8695
:10525000FC8685EFC8168FE0D806E104F10418F447
:105260008CE08F8B07CF80E195EFC9169FEFD906B1
:10527000E104F10468F08091090590910A05A0917C
:105280000B05B0910C058A8F9B8FAC8FBD8F80E290
:105290008F8BF1CE2F932FB72F932BB72F933F9355
:1052A0004F936F937F938F939F93EF93FF934091CF
:1052B000C6002091620730916307C90101968F777C
:1052C000992760916407709165078617970741F0E9
:1052D0002E51394FF9014083909363078093620701
:1052E000FF91EF919F918F917F916F914F913F919E
:1052F0002F912BBF2F912FBF2F9118959A01AB01A2
:10530000211581EE38074105510549F182E080936E
:10531000C00060E079E08DE390E00F943D1CCA018D
:10532000B901615071098109910922E030E040E042
:1053300050E00F943D1C3093C5002093C400809131
:10534000C10080618093C1008091C100886080931A
:10535000C1008091C10080688093C10008951092BF
:10536000C00020E130E0E7CF20916407309165076D
:1053700080916207909163078217930771F0F9019A
:10538000EE51F94F80812F5F3F4F2F7733273093B6
:1053900065072093640790E008958FEF9FEF0895CD
:1053A00080916407909165079093630780936207EB
:1053B00008952F923F924F925F926F927F928F92B9
:1053C0009F92AF92BF92CF92DF92EF92FF920F9394
:1053D0001F93CF93DF93CDB7DEB7A2970FB6F894A4
:1053E000DEBF0FBECDBF9AA389A36A017B01C114A2
:1053F000D104E104F104E9F450E040E060E3A29656
:105400000FB6F894DEBF0FBECDBFDF91CF911F91D5
:105410000F91FF90EF90DF90CF90BF90AF909F9053
:105420008F907F906F905F904F903F902F900C9453
:10543000A62A8E010F5F1F4F412C512C32011801FB
:10544000822E912CB12CA12CC701B601A50194018B
:105450000F941B1CD301C2010196A11DB11DF801BF
:1054600061938F01C814D904EA04FB0488F5F101A3
:10547000E40DF51D60816A3080F5605D50E040E02C
:1054800089A19AA10E94A62AF1E04F1A5108610849
:1054900071088FEF481658066806780641F7A296FD
:1054A0000FB6F894DEBF0FBECDBFDF91CF911F9135
:1054B0000F91FF90EF90DF90CF90BF90AF909F90B3
:1054C0008F907F906F905F904F903F902F900895B6
:1054D0002C013D0169017A01B7CF695CCFCFCF9232
:1054E000DF92EF92FF92CF93DF93EC016A017B0191
:1054F0002115310569F48091C00085FFFCCFC09271
:10550000C600DF91CF91FF90EF90DF90CF9008958C
:105510002A30310581F4F7FE0DC050E040E06DE225
:105520000E94A62AF094E094D094C094C11CD11C8F
:10553000E11CF11C2AE0B701A601CE01DF91CF9159
:10554000FF90EF90DF90CF900C94D9299A01462FCD
:10555000660F550B660B770B0C946F2ACF93DF9376
:10556000EC0150E040E06DE00E94A62A50E040E0EF
:105570006AE0CE01DF91CF910C94A62A9A01AB018B
:10558000770F660B770B0C946F2A2115310539F4D0
:105590008091C00085FFFCCF4093C60008950C9415
:1055A000D9299A01462F50E070E060E00C94C52A9A
:1055B0009A01AB0170E060E00C94C52ACF93DF93B1
:1055C000EC010E94D82ACE01DF91CF910C94AE2A33
:1055D0008F929F92AF92BF92CF92DF92EF92FF9203
:1055E0000F931F93CF93DF938C016A017B01C22F2E
:1055F00020E030E0A901CB01B6010F94141887FF19
:105600000AC050E040E06DE2C8010E94A62AF7FA05
:10561000F094F7F8F094D0E060E070E080E09FE371
:10562000DC1741F020E030E040E251E40F941E1816
:10563000DF5FF6CF9B01AC01C701B6010F941F17C6
:105640006B017C010F9497184B015C010F94C618F5
:105650009B01AC01C701B6010F941E176B017C01C1
:105660002AE0B501A401C8010E94D929CC2361F028
:10567000ECECF4E08191882339F09091C00095FF23
:10568000FCCF8093C600F6CFC15008F120E030E097
:1056900040E251E4C701B6010F941D1B4B015C01B0
:1056A0000F9490186B014AE050E0C8010E94BE2A96
:1056B000B601DD0C880B990B0F94C8189B01AC0147
:1056C000C501B4010F941E176B017C01DDCFDF9182
:1056D000CF911F910F91FF90EF90DF90CF90BF90EF
:1056E000AF909F908F9008950C94E82A90E080E00E
:1056F0000895089511982FB787FD5DC0F894909193
:1057000002019E7F909302012FBF119A11982FB72B
:1057100086FD5DC0F894909102019E7F90930201F6
:105720002FBF119A11982FB785FD5DC0F894909105
:1057300002019E7F909302012FBF119A11982FB7FB
:1057400084FD5DC0F894909102019E7F90930201C8
:105750002FBF119A11982FB783FD5DC0F8949091D7
:1057600002019E7F909302012FBF119A11982FB7CB
:1057700082FD5DC0F894909102019E7F909302019A
:105780002FBF119A11982FB781FD5DC0F8949091A9
:1057900002019E7F909302012FBF119A11989FB72B
:1057A00080FD5DC0F894809102018E7F809302019C
:1057B0009FBF119A0895F89490910201916090937F
:1057C00002012FBF119A11982FB786FFA3CFF8942B
:1057D000909102019160909302012FBF119A11984C
:1057E0002FB785FFA3CFF894909102019160909319
:1057F00002012FBF119A11982FB784FFA3CFF894FD
:10580000909102019160909302012FBF119A11981B
:105810002FB783FFA3CFF8949091020191609093EA
:1058200002012FBF119A11982FB782FFA3CFF894CE
:10583000909102019160909302012FBF119A1198EB
:105840002FB781FFA3CFF8949091020191609093BC
:1058500002012FBF119A11989FB780FFA3CFF89430
:10586000809102018160809302019FBF119A089587
:10587000CF9382E0809300020F9490116C507E4F82
:105880008F4F9F4F60939D0770939E0780939F0754
:105890009093A007389ACAE0409A63E070E080E0F5
:1058A00090E00F94C111409863E070E080E090E0D8
:1058B0000F94C111C15081F7CF91089560917A077B
:1058C00070917B0780917C0790917D070F94B309BD
:1058D00060937E0270937F02809380029093810296
:1058E0000D94A600609176077091770780917807F4
:1058F000909179070F94C10960937A0270937B02AB
:1059000080937C0290937D020D94A600CF93DF9349
:10591000EC01262F4CAD6BAD04960F94290B9BAD7B
:10592000890F8BAF81E090E0DF91CF910895BF9216
:10593000CF92DF92EF92FF920F931F93CF93DF935B
:10594000C82F6B017A01B22E222309F453C0CA0179
:105950000F94751F01E1081B1092DE0791E09C0F68
:10596000892F880F890F880F880F8093DF076EE3D8
:1059700083EA97E00F946213F6016491662309F4B9
:105980004FC0E60183EA97E00F94621321968C2DB5
:105990008C1B182F100FFE0164916111F3CF6AE385
:1059A00083EA97E00F946213CFEFC10F112339F010
:1059B00060E283EA97E00F946213C150C8F7BB20FE
:1059C00009F1E7012196F7016491662349F083EA22
:1059D00097E00F946213FE01649121966111F7CF55
:1059E000DF91CF911F910F91FF90EF90DF90CF90BB
:1059F000BF900895FA0101900020E9F7042F0E1BD3
:105A00000E5EAACFB70183EA97E0DF91CF911F9195
:105A10000F91FF90EF90DF90CF90BF900D946013A7
:105A2000102FBDCFBF92CF92DF92EF92FF920F93D4
:105A30001F93CF93DF93C82F6B017A01B22E2223DD
:105A400009F453C0CA010F94751F01E1081B10929D
:105A5000DE0791E09C0F892F880F890F880F880F30
:105A60008093DF0760E283EA97E00F946213F60108
:105A70006491662309F44FC0E60183EA97E00F942E
:105A8000621321968C2D8C1B182F100FFE01649130
:105A90006111F3CF6AE383EA97E00F946213CFEFCB
:105AA000C10F112339F060E283EA97E00F9462138B
:105AB000C150C8F7BB2009F1E7012196F7016491B5
:105AC000662349F083EA97E00F946213FE01649124
:105AD00021966111F7CFDF91CF911F910F91FF9028
